{
  "_format": "hh-sol-artifact-1",
  "contractName": "TokenVendor",
  "sourceName": "contracts/TokenVendor.sol",
  "abi": [
    {
      "inputs": [
        {
          "internalType": "address",
          "name": "tokenAddress",
          "type": "address"
        }
      ],
      "stateMutability": "nonpayable",
      "type": "constructor"
    },
    {
      "anonymous": false,
      "inputs": [
        {
          "indexed": true,
          "internalType": "address",
          "name": "previousOwner",
          "type": "address"
        },
        {
          "indexed": true,
          "internalType": "address",
          "name": "newOwner",
          "type": "address"
        }
      ],
      "name": "OwnershipTransferred",
      "type": "event"
    },
    {
      "anonymous": false,
      "inputs": [
        {
          "indexed": true,
          "internalType": "address",
          "name": "buyer",
          "type": "address"
        },
        {
          "indexed": false,
          "internalType": "uint256",
          "name": "amountOfETH",
          "type": "uint256"
        },
        {
          "indexed": false,
          "internalType": "uint256",
          "name": "amountOfTokens",
          "type": "uint256"
        }
      ],
      "name": "TokensBought",
      "type": "event"
    },
    {
      "inputs": [],
      "name": "buyTokens",
      "outputs": [],
      "stateMutability": "payable",
      "type": "function"
    },
    {
      "inputs": [],
      "name": "owner",
      "outputs": [
        {
          "internalType": "address",
          "name": "",
          "type": "address"
        }
      ],
      "stateMutability": "view",
      "type": "function"
    },
    {
      "inputs": [],
      "name": "renounceOwnership",
      "outputs": [],
      "stateMutability": "nonpayable",
      "type": "function"
    },
    {
      "inputs": [],
      "name": "token",
      "outputs": [
        {
          "internalType": "contract AccessControlToken",
          "name": "",
          "type": "address"
        }
      ],
      "stateMutability": "view",
      "type": "function"
    },
    {
      "inputs": [],
      "name": "tokensPerEth",
      "outputs": [
        {
          "internalType": "uint256",
          "name": "",
          "type": "uint256"
        }
      ],
      "stateMutability": "view",
      "type": "function"
    },
    {
      "inputs": [
        {
          "internalType": "address",
          "name": "newOwner",
          "type": "address"
        }
      ],
      "name": "transferOwnership",
      "outputs": [],
      "stateMutability": "nonpayable",
      "type": "function"
    },
    {
      "inputs": [],
      "name": "withdraw",
      "outputs": [],
      "stateMutability": "nonpayable",
      "type": "function"
    }
  ],
  "bytecode": "0x60806040523480156200001157600080fd5b5060405162000eb238038062000eb28339818101604052810190620000379190620001d5565b620000576200004b6200009f60201b60201c565b620000a760201b60201c565b80600160006101000a81548173ffffffffffffffffffffffffffffffffffffffff021916908373ffffffffffffffffffffffffffffffffffffffff1602179055505062000207565b600033905090565b60008060009054906101000a900473ffffffffffffffffffffffffffffffffffffffff169050816000806101000a81548173ffffffffffffffffffffffffffffffffffffffff021916908373ffffffffffffffffffffffffffffffffffffffff1602179055508173ffffffffffffffffffffffffffffffffffffffff168173ffffffffffffffffffffffffffffffffffffffff167f8be0079c531659141344cd1fd0a4f28419497f9722a3daafe3b4186f6b6457e060405160405180910390a35050565b600080fd5b600073ffffffffffffffffffffffffffffffffffffffff82169050919050565b60006200019d8262000170565b9050919050565b620001af8162000190565b8114620001bb57600080fd5b50565b600081519050620001cf81620001a4565b92915050565b600060208284031215620001ee57620001ed6200016b565b5b6000620001fe84828501620001be565b91505092915050565b610c9b80620002176000396000f3fe6080604052600436106100705760003560e01c8063cbdd69b51161004e578063cbdd69b5146100ce578063d0febe4c146100f9578063f2fde38b14610103578063fc0c546a1461012c57610070565b80633ccfd60b14610075578063715018a61461008c5780638da5cb5b146100a3575b600080fd5b34801561008157600080fd5b5061008a610157565b005b34801561009857600080fd5b506100a1610214565b005b3480156100af57600080fd5b506100b8610228565b6040516100c591906106c7565b60405180910390f35b3480156100da57600080fd5b506100e3610251565b6040516100f091906106fb565b60405180910390f35b610101610258565b005b34801561010f57600080fd5b5061012a60048036038101906101259190610747565b610493565b005b34801561013857600080fd5b50610141610516565b60405161014e91906107d3565b60405180910390f35b61015f61053c565b600047905060003373ffffffffffffffffffffffffffffffffffffffff168260405161018a9061081f565b60006040518083038185875af1925050503d80600081146101c7576040519150601f19603f3d011682016040523d82523d6000602084013e6101cc565b606091505b5050905080610210576040517f08c379a000000000000000000000000000000000000000000000000000000000815260040161020790610891565b60405180910390fd5b5050565b61021c61053c565b61022660006105ba565b565b60008060009054906101000a900473ffffffffffffffffffffffffffffffffffffffff16905090565b6216e36081565b60006216e3603461026991906108e0565b905080600160009054906101000a900473ffffffffffffffffffffffffffffffffffffffff1673ffffffffffffffffffffffffffffffffffffffff1663dd62ed3e6102b2610228565b306040518363ffffffff1660e01b81526004016102d0929190610922565b602060405180830381865afa1580156102ed573d6000803e3d6000fd5b505050506040513d601f19601f820116820180604052508101906103119190610977565b1015610352576040517f08c379a000000000000000000000000000000000000000000000000000000000815260040161034990610a16565b60405180910390fd5b6000600160009054906101000a900473ffffffffffffffffffffffffffffffffffffffff1673ffffffffffffffffffffffffffffffffffffffff166323b872dd61039a610228565b33856040518463ffffffff1660e01b81526004016103ba93929190610a36565b6020604051808303816000875af11580156103d9573d6000803e3d6000fd5b505050506040513d601f19601f820116820180604052508101906103fd9190610aa5565b90508061043f576040517f08c379a000000000000000000000000000000000000000000000000000000000815260040161043690610b1e565b60405180910390fd5b3373ffffffffffffffffffffffffffffffffffffffff167f8442948036198f1146d3a63c3db355d7e0295c2cc5676c755990445da4fdc1c93484604051610487929190610b3e565b60405180910390a25050565b61049b61053c565b600073ffffffffffffffffffffffffffffffffffffffff168173ffffffffffffffffffffffffffffffffffffffff160361050a576040517f08c379a000000000000000000000000000000000000000000000000000000000815260040161050190610bd9565b60405180910390fd5b610513816105ba565b50565b600160009054906101000a900473ffffffffffffffffffffffffffffffffffffffff1681565b61054461067e565b73ffffffffffffffffffffffffffffffffffffffff16610562610228565b73ffffffffffffffffffffffffffffffffffffffff16146105b8576040517f08c379a00000000000000000000000000000000000000000000000000000000081526004016105af90610c45565b60405180910390fd5b565b60008060009054906101000a900473ffffffffffffffffffffffffffffffffffffffff169050816000806101000a81548173ffffffffffffffffffffffffffffffffffffffff021916908373ffffffffffffffffffffffffffffffffffffffff1602179055508173ffffffffffffffffffffffffffffffffffffffff168173ffffffffffffffffffffffffffffffffffffffff167f8be0079c531659141344cd1fd0a4f28419497f9722a3daafe3b4186f6b6457e060405160405180910390a35050565b600033905090565b600073ffffffffffffffffffffffffffffffffffffffff82169050919050565b60006106b182610686565b9050919050565b6106c1816106a6565b82525050565b60006020820190506106dc60008301846106b8565b92915050565b6000819050919050565b6106f5816106e2565b82525050565b600060208201905061071060008301846106ec565b92915050565b600080fd5b610724816106a6565b811461072f57600080fd5b50565b6000813590506107418161071b565b92915050565b60006020828403121561075d5761075c610716565b5b600061076b84828501610732565b91505092915050565b6000819050919050565b600061079961079461078f84610686565b610774565b610686565b9050919050565b60006107ab8261077e565b9050919050565b60006107bd826107a0565b9050919050565b6107cd816107b2565b82525050565b60006020820190506107e860008301846107c4565b92915050565b600081905092915050565b50565b60006108096000836107ee565b9150610814826107f9565b600082019050919050565b600061082a826107fc565b9150819050919050565b600082825260208201905092915050565b7f4661696c656420746f207769647261772066756e647300000000000000000000600082015250565b600061087b601683610834565b915061088682610845565b602082019050919050565b600060208201905081810360008301526108aa8161086e565b9050919050565b7f4e487b7100000000000000000000000000000000000000000000000000000000600052601160045260246000fd5b60006108eb826106e2565b91506108f6836106e2565b9250828202610904816106e2565b9150828204841483151761091b5761091a6108b1565b5b5092915050565b600060408201905061093760008301856106b8565b61094460208301846106b8565b9392505050565b610954816106e2565b811461095f57600080fd5b50565b6000815190506109718161094b565b92915050565b60006020828403121561098d5761098c610716565b5b600061099b84828501610962565b91505092915050565b7f5468652076656e646f7220686173206e6f7420656e6f7567687420746f6b656e60008201527f7300000000000000000000000000000000000000000000000000000000000000602082015250565b6000610a00602183610834565b9150610a0b826109a4565b604082019050919050565b60006020820190508181036000830152610a2f816109f3565b9050919050565b6000606082019050610a4b60008301866106b8565b610a5860208301856106b8565b610a6560408301846106ec565b949350505050565b60008115159050919050565b610a8281610a6d565b8114610a8d57600080fd5b50565b600081519050610a9f81610a79565b92915050565b600060208284031215610abb57610aba610716565b5b6000610ac984828501610a90565b91505092915050565b7f4661696c656420746f20706179206f6e20657869740000000000000000000000600082015250565b6000610b08601583610834565b9150610b1382610ad2565b602082019050919050565b60006020820190508181036000830152610b3781610afb565b9050919050565b6000604082019050610b5360008301856106ec565b610b6060208301846106ec565b9392505050565b7f4f776e61626c653a206e6577206f776e657220697320746865207a65726f206160008201527f6464726573730000000000000000000000000000000000000000000000000000602082015250565b6000610bc3602683610834565b9150610bce82610b67565b604082019050919050565b60006020820190508181036000830152610bf281610bb6565b9050919050565b7f4f776e61626c653a2063616c6c6572206973206e6f7420746865206f776e6572600082015250565b6000610c2f602083610834565b9150610c3a82610bf9565b602082019050919050565b60006020820190508181036000830152610c5e81610c22565b905091905056fea2646970667358221220debd622ea0ad8b80caf28a967fb25d245b05d87bd4b45a901809ee7249a20cc064736f6c63430008110033",
  "linkReferences": {},
  "deployedLinkReferences": {}
}