{
  "_format": "hh-sol-artifact-1",
  "contractName": "Fare1",
  "sourceName": "contracts/FareCalculator.sol",
  "abi": [
    {
      "inputs": [
        {
          "internalType": "uint256",
          "name": "start_",
          "type": "uint256"
        },
        {
          "internalType": "uint256",
          "name": "stop_",
          "type": "uint256"
        },
        {
          "internalType": "uint256",
          "name": "",
          "type": "uint256"
        },
        {
          "internalType": "address",
          "name": "",
          "type": "address"
        }
      ],
      "name": "evaluate",
      "outputs": [
        {
          "internalType": "uint256",
          "name": "",
          "type": "uint256"
        }
      ],
      "stateMutability": "pure",
      "type": "function"
    }
  ],
  "bytecode": "0x608060405234801561001057600080fd5b50610289806100206000396000f3fe608060405234801561001057600080fd5b506004361061002b5760003560e01c8063743096c114610030575b600080fd5b61004a6004803603810190610045919061011d565b610060565b6040516100579190610193565b60405180910390f35b6000848461006e91906101dd565b600261007a9190610211565b9050949350505050565b600080fd5b6000819050919050565b61009c81610089565b81146100a757600080fd5b50565b6000813590506100b981610093565b92915050565b600073ffffffffffffffffffffffffffffffffffffffff82169050919050565b60006100ea826100bf565b9050919050565b6100fa816100df565b811461010557600080fd5b50565b600081359050610117816100f1565b92915050565b6000806000806080858703121561013757610136610084565b5b6000610145878288016100aa565b9450506020610156878288016100aa565b9350506040610167878288016100aa565b925050606061017887828801610108565b91505092959194509250565b61018d81610089565b82525050565b60006020820190506101a86000830184610184565b92915050565b7f4e487b7100000000000000000000000000000000000000000000000000000000600052601160045260246000fd5b60006101e882610089565b91506101f383610089565b925082820390508181111561020b5761020a6101ae565b5b92915050565b600061021c82610089565b915061022783610089565b925082820261023581610089565b9150828204841483151761024c5761024b6101ae565b5b509291505056fea26469706673582212203e770967378cd54304e055360a10eb6a3171fdb2cfa89ed0644147fc308c3af564736f6c63430008110033",
  "linkReferences": {},
  "deployedLinkReferences": {}
}