{
  "_format": "hh-sol-artifact-1",
  "contractName": "Fare2",
  "sourceName": "contracts/FareCalculator.sol",
  "abi": [
    {
      "inputs": [
        {
          "internalType": "uint256",
          "name": "start_",
          "type": "uint256"
        },
        {
          "internalType": "uint256",
          "name": "stop_",
          "type": "uint256"
        },
        {
          "internalType": "uint256",
          "name": "occupancy_",
          "type": "uint256"
        },
        {
          "internalType": "address",
          "name": "",
          "type": "address"
        }
      ],
      "name": "evaluate",
      "outputs": [
        {
          "internalType": "uint256",
          "name": "",
          "type": "uint256"
        }
      ],
      "stateMutability": "pure",
      "type": "function"
    }
  ],
  "bytecode": "0x608060405234801561001057600080fd5b50610300806100206000396000f3fe608060405234801561001057600080fd5b506004361061002b5760003560e01c8063743096c114610030575b600080fd5b61004a60048036038101906100459190610160565b610060565b60405161005791906101d6565b60405180910390f35b600080600a9050600086866100759190610220565b9050606485101561009f5780600161008d9190610254565b826100989190610296565b91506100ba565b8060026100ac9190610254565b826100b79190610296565b91505b8192505050949350505050565b600080fd5b6000819050919050565b6100df816100cc565b81146100ea57600080fd5b50565b6000813590506100fc816100d6565b92915050565b600073ffffffffffffffffffffffffffffffffffffffff82169050919050565b600061012d82610102565b9050919050565b61013d81610122565b811461014857600080fd5b50565b60008135905061015a81610134565b92915050565b6000806000806080858703121561017a576101796100c7565b5b6000610188878288016100ed565b9450506020610199878288016100ed565b93505060406101aa878288016100ed565b92505060606101bb8782880161014b565b91505092959194509250565b6101d0816100cc565b82525050565b60006020820190506101eb60008301846101c7565b92915050565b7f4e487b7100000000000000000000000000000000000000000000000000000000600052601160045260246000fd5b600061022b826100cc565b9150610236836100cc565b925082820390508181111561024e5761024d6101f1565b5b92915050565b600061025f826100cc565b915061026a836100cc565b9250828202610278816100cc565b9150828204841483151761028f5761028e6101f1565b5b5092915050565b60006102a1826100cc565b91506102ac836100cc565b92508282019050808211156102c4576102c36101f1565b5b9291505056fea2646970667358221220eec5f0706f4e41f5b429123a36eea912798800cdf668c7d32fc42fb0f0f9e0a364736f6c63430008110033",
  "linkReferences": {},
  "deployedLinkReferences": {}
}