{
  "_format": "hh-sol-artifact-1",
  "contractName": "AccessControl",
  "sourceName": "contracts/AccessControl.sol",
  "abi": [
    {
      "inputs": [
        {
          "internalType": "address",
          "name": "hardwareAddress_",
          "type": "address"
        },
        {
          "internalType": "address",
          "name": "tokenAddress_",
          "type": "address"
        },
        {
          "internalType": "bool",
          "name": "onchainTime_",
          "type": "bool"
        }
      ],
      "stateMutability": "nonpayable",
      "type": "constructor"
    },
    {
      "anonymous": false,
      "inputs": [
        {
          "indexed": true,
          "internalType": "address",
          "name": "userAdrdress_",
          "type": "address"
        }
      ],
      "name": "DebtPayed",
      "type": "event"
    },
    {
      "anonymous": false,
      "inputs": [
        {
          "indexed": true,
          "internalType": "address",
          "name": "fareAddress_",
          "type": "address"
        }
      ],
      "name": "NewFare",
      "type": "event"
    },
    {
      "anonymous": false,
      "inputs": [
        {
          "indexed": true,
          "internalType": "address",
          "name": "previousOwner",
          "type": "address"
        },
        {
          "indexed": true,
          "internalType": "address",
          "name": "newOwner",
          "type": "address"
        }
      ],
      "name": "OwnershipTransferred",
      "type": "event"
    },
    {
      "anonymous": false,
      "inputs": [
        {
          "indexed": true,
          "internalType": "address",
          "name": "userAddress_",
          "type": "address"
        },
        {
          "indexed": true,
          "internalType": "uint256",
          "name": "debt",
          "type": "uint256"
        }
      ],
      "name": "UserBlocked",
      "type": "event"
    },
    {
      "anonymous": false,
      "inputs": [
        {
          "indexed": true,
          "internalType": "address",
          "name": "userAddress_",
          "type": "address"
        }
      ],
      "name": "UserUnblocked",
      "type": "event"
    },
    {
      "inputs": [
        {
          "internalType": "address",
          "name": "fareAddress_",
          "type": "address"
        }
      ],
      "name": "addFare",
      "outputs": [],
      "stateMutability": "nonpayable",
      "type": "function"
    },
    {
      "inputs": [
        {
          "internalType": "address",
          "name": "userAddress_",
          "type": "address"
        }
      ],
      "name": "addUser",
      "outputs": [],
      "stateMutability": "nonpayable",
      "type": "function"
    },
    {
      "inputs": [
        {
          "internalType": "address",
          "name": "userAdrdress_",
          "type": "address"
        }
      ],
      "name": "blockUser",
      "outputs": [],
      "stateMutability": "nonpayable",
      "type": "function"
    },
    {
      "inputs": [
        {
          "internalType": "address",
          "name": "userAddress_",
          "type": "address"
        },
        {
          "internalType": "uint256",
          "name": "timestamp_",
          "type": "uint256"
        }
      ],
      "name": "enter",
      "outputs": [],
      "stateMutability": "nonpayable",
      "type": "function"
    },
    {
      "inputs": [
        {
          "internalType": "address",
          "name": "userAddress_",
          "type": "address"
        }
      ],
      "name": "enter",
      "outputs": [],
      "stateMutability": "nonpayable",
      "type": "function"
    },
    {
      "inputs": [
        {
          "internalType": "address",
          "name": "userAddress_",
          "type": "address"
        }
      ],
      "name": "exit",
      "outputs": [],
      "stateMutability": "nonpayable",
      "type": "function"
    },
    {
      "inputs": [
        {
          "internalType": "address",
          "name": "userAddress_",
          "type": "address"
        },
        {
          "internalType": "uint256",
          "name": "timestamp_",
          "type": "uint256"
        }
      ],
      "name": "exit",
      "outputs": [],
      "stateMutability": "nonpayable",
      "type": "function"
    },
    {
      "inputs": [],
      "name": "fare",
      "outputs": [
        {
          "internalType": "address",
          "name": "",
          "type": "address"
        }
      ],
      "stateMutability": "view",
      "type": "function"
    },
    {
      "inputs": [
        {
          "internalType": "uint256",
          "name": "timeStamp_",
          "type": "uint256"
        }
      ],
      "name": "fare",
      "outputs": [
        {
          "internalType": "address",
          "name": "",
          "type": "address"
        }
      ],
      "stateMutability": "view",
      "type": "function"
    },
    {
      "inputs": [
        {
          "internalType": "uint256",
          "name": "",
          "type": "uint256"
        }
      ],
      "name": "fares",
      "outputs": [
        {
          "internalType": "contract FareCalculator",
          "name": "",
          "type": "address"
        }
      ],
      "stateMutability": "view",
      "type": "function"
    },
    {
      "inputs": [
        {
          "internalType": "uint256",
          "name": "",
          "type": "uint256"
        }
      ],
      "name": "faresTimeStamp",
      "outputs": [
        {
          "internalType": "uint256",
          "name": "",
          "type": "uint256"
        }
      ],
      "stateMutability": "view",
      "type": "function"
    },
    {
      "inputs": [
        {
          "internalType": "address",
          "name": "userAddress_",
          "type": "address"
        }
      ],
      "name": "getUserRegisters",
      "outputs": [
        {
          "internalType": "uint256[]",
          "name": "",
          "type": "uint256[]"
        }
      ],
      "stateMutability": "view",
      "type": "function"
    },
    {
      "inputs": [],
      "name": "hardwareAddress",
      "outputs": [
        {
          "internalType": "address",
          "name": "",
          "type": "address"
        }
      ],
      "stateMutability": "view",
      "type": "function"
    },
    {
      "inputs": [
        {
          "internalType": "address",
          "name": "userAddress_",
          "type": "address"
        }
      ],
      "name": "isInside",
      "outputs": [
        {
          "internalType": "bool",
          "name": "",
          "type": "bool"
        }
      ],
      "stateMutability": "view",
      "type": "function"
    },
    {
      "inputs": [
        {
          "internalType": "address",
          "name": "userAddress_",
          "type": "address"
        },
        {
          "internalType": "uint256",
          "name": "timestamp_",
          "type": "uint256"
        }
      ],
      "name": "isInside",
      "outputs": [
        {
          "internalType": "bool",
          "name": "",
          "type": "bool"
        }
      ],
      "stateMutability": "view",
      "type": "function"
    },
    {
      "inputs": [],
      "name": "myDebt",
      "outputs": [
        {
          "internalType": "uint256",
          "name": "",
          "type": "uint256"
        }
      ],
      "stateMutability": "view",
      "type": "function"
    },
    {
      "inputs": [],
      "name": "nUsers",
      "outputs": [
        {
          "internalType": "uint256",
          "name": "",
          "type": "uint256"
        }
      ],
      "stateMutability": "view",
      "type": "function"
    },
    {
      "inputs": [
        {
          "internalType": "uint256",
          "name": "timestamp_",
          "type": "uint256"
        }
      ],
      "name": "occupancy",
      "outputs": [
        {
          "internalType": "uint256",
          "name": "",
          "type": "uint256"
        }
      ],
      "stateMutability": "view",
      "type": "function"
    },
    {
      "inputs": [],
      "name": "occupancy",
      "outputs": [
        {
          "internalType": "uint256",
          "name": "",
          "type": "uint256"
        }
      ],
      "stateMutability": "view",
      "type": "function"
    },
    {
      "inputs": [
        {
          "internalType": "uint256",
          "name": "start_",
          "type": "uint256"
        },
        {
          "internalType": "uint256",
          "name": "end_",
          "type": "uint256"
        }
      ],
      "name": "occupancy",
      "outputs": [
        {
          "internalType": "uint256",
          "name": "",
          "type": "uint256"
        }
      ],
      "stateMutability": "view",
      "type": "function"
    },
    {
      "inputs": [],
      "name": "onchainTime",
      "outputs": [
        {
          "internalType": "bool",
          "name": "",
          "type": "bool"
        }
      ],
      "stateMutability": "view",
      "type": "function"
    },
    {
      "inputs": [],
      "name": "owner",
      "outputs": [
        {
          "internalType": "address",
          "name": "",
          "type": "address"
        }
      ],
      "stateMutability": "view",
      "type": "function"
    },
    {
      "inputs": [
        {
          "internalType": "uint256",
          "name": "amount_",
          "type": "uint256"
        }
      ],
      "name": "payDebt",
      "outputs": [],
      "stateMutability": "nonpayable",
      "type": "function"
    },
    {
      "inputs": [
        {
          "internalType": "address",
          "name": "userAddress_",
          "type": "address"
        }
      ],
      "name": "register",
      "outputs": [],
      "stateMutability": "nonpayable",
      "type": "function"
    },
    {
      "inputs": [
        {
          "internalType": "address",
          "name": "userAddress_",
          "type": "address"
        },
        {
          "internalType": "uint256",
          "name": "timestamp_",
          "type": "uint256"
        }
      ],
      "name": "register",
      "outputs": [],
      "stateMutability": "nonpayable",
      "type": "function"
    },
    {
      "inputs": [],
      "name": "renounceOwnership",
      "outputs": [],
      "stateMutability": "nonpayable",
      "type": "function"
    },
    {
      "inputs": [
        {
          "internalType": "uint256",
          "name": "newAutentificator_",
          "type": "uint256"
        }
      ],
      "name": "setAutentificator",
      "outputs": [],
      "stateMutability": "nonpayable",
      "type": "function"
    },
    {
      "inputs": [],
      "name": "token",
      "outputs": [
        {
          "internalType": "contract AccessControlToken",
          "name": "",
          "type": "address"
        }
      ],
      "stateMutability": "view",
      "type": "function"
    },
    {
      "inputs": [
        {
          "internalType": "address",
          "name": "newOwner",
          "type": "address"
        }
      ],
      "name": "transferOwnership",
      "outputs": [],
      "stateMutability": "nonpayable",
      "type": "function"
    },
    {
      "inputs": [
        {
          "internalType": "address",
          "name": "userAdrdress_",
          "type": "address"
        }
      ],
      "name": "unblockUser",
      "outputs": [],
      "stateMutability": "nonpayable",
      "type": "function"
    },
    {
      "inputs": [
        {
          "internalType": "uint256",
          "name": "",
          "type": "uint256"
        }
      ],
      "name": "users",
      "outputs": [
        {
          "internalType": "enum AccessControl.Status",
          "name": "status",
          "type": "uint8"
        },
        {
          "internalType": "uint256",
          "name": "autentificator",
          "type": "uint256"
        },
        {
          "internalType": "bool",
          "name": "isInside",
          "type": "bool"
        },
        {
          "internalType": "uint256",
          "name": "debt",
          "type": "uint256"
        }
      ],
      "stateMutability": "view",
      "type": "function"
    },
    {
      "inputs": [
        {
          "internalType": "address",
          "name": "",
          "type": "address"
        }
      ],
      "name": "usersID",
      "outputs": [
        {
          "internalType": "uint256",
          "name": "",
          "type": "uint256"
        }
      ],
      "stateMutability": "view",
      "type": "function"
    }
  ],
  "bytecode": "0x60806040523480156200001157600080fd5b506040516200404338038062004043833981810160405281019062000037919062000277565b620000576200004b6200010460201b60201c565b6200010c60201b60201c565b82600760006101000a81548173ffffffffffffffffffffffffffffffffffffffff021916908373ffffffffffffffffffffffffffffffffffffffff16021790555080600760146101000a81548160ff02191690831515021790555081600460006101000a81548173ffffffffffffffffffffffffffffffffffffffff021916908373ffffffffffffffffffffffffffffffffffffffff1602179055506000600381905550505050620002d3565b600033905090565b60008060009054906101000a900473ffffffffffffffffffffffffffffffffffffffff169050816000806101000a81548173ffffffffffffffffffffffffffffffffffffffff021916908373ffffffffffffffffffffffffffffffffffffffff1602179055508173ffffffffffffffffffffffffffffffffffffffff168173ffffffffffffffffffffffffffffffffffffffff167f8be0079c531659141344cd1fd0a4f28419497f9722a3daafe3b4186f6b6457e060405160405180910390a35050565b600080fd5b600073ffffffffffffffffffffffffffffffffffffffff82169050919050565b60006200020282620001d5565b9050919050565b6200021481620001f5565b81146200022057600080fd5b50565b600081519050620002348162000209565b92915050565b60008115159050919050565b62000251816200023a565b81146200025d57600080fd5b50565b600081519050620002718162000246565b92915050565b600080600060608486031215620002935762000292620001d0565b5b6000620002a38682870162000223565b9350506020620002b68682870162000223565b9250506040620002c98682870162000260565b9150509250925092565b613d6080620002e36000396000f3fe608060405234801561001057600080fd5b50600436106101f05760003560e01c80634bc060ed1161010f578063adeb0382116100a2578063df41935011610071578063df419350146105b8578063ef693bed146105e8578063f2fde38b14610604578063fc0c546a14610620576101f0565b8063adeb038214610532578063b42652e914610550578063b6bc4bad1461056c578063d014c01f1461059c576101f0565b8063895449d5116100de578063895449d5146104bc5780638da5cb5b146104da578063947bb341146104f85780639a2041bf14610516576101f0565b80634bc060ed1461044a5780636d705ebb1461047a578063715018a6146104965780637e348b7d146104a0576101f0565b80633bdf8369116101875780633f728455116101565780633f728455146103c4578063421b2d8b146103e2578063421ce89b146103fe5780634420e4861461042e576101f0565b80633bdf83691461033c5780633d134bfc1461035a5780633da013251461038a5780633e19e9e0146103a6576101f0565b806328c3d4b3116101c357806328c3d4b31461028d578063305628af146102bd578063365b98b2146102ed57806339d319e514610320576101f0565b80630b7b1329146101f557806316fc3297146102115780631a9135421461022d57806326a7600d1461025d575b600080fd5b61020f600480360381019061020a9190612f46565b61063e565b005b61022b60048036038101906102269190612fa9565b610718565b005b61024760048036038101906102429190612f46565b610a41565b6040516102549190612ff1565b60405180910390f35b61027760048036038101906102729190612f46565b610ba1565b60405161028491906130ca565b60405180910390f35b6102a760048036038101906102a29190612f46565b610cec565b6040516102b491906130fb565b60405180910390f35b6102d760048036038101906102d29190612fa9565b610d04565b6040516102e491906130fb565b60405180910390f35b61030760048036038101906103029190612fa9565b610d52565b604051610317949392919061318d565b60405180910390f35b61033a60048036038101906103359190612f46565b610dac565b005b610344610f94565b60405161035191906131e1565b60405180910390f35b610374600480360381019061036f9190612fa9565b610fba565b604051610381919061325b565b60405180910390f35b6103a4600480360381019061039f9190612f46565b610ff9565b005b6103ae611210565b6040516103bb9190612ff1565b60405180910390f35b6103cc611223565b6040516103d991906130fb565b60405180910390f35b6103fc60048036038101906103f79190612f46565b611233565b005b61041860048036038101906104139190613276565b6113bd565b60405161042591906130fb565b60405180910390f35b61044860048036038101906104439190612f46565b611405565b005b610464600480360381019061045f9190612fa9565b6114ec565b60405161047191906130fb565b60405180910390f35b610494600480360381019061048f91906132b6565b611510565b005b61049e6115f8565b005b6104ba60048036038101906104b591906132b6565b61160c565b005b6104c46117d8565b6040516104d191906130fb565b60405180910390f35b6104e26117de565b6040516104ef91906131e1565b60405180910390f35b610500611807565b60405161050d91906130fb565b60405180910390f35b610530600480360381019061052b9190612fa9565b611902565b005b61053a611aae565b60405161054791906131e1565b60405180910390f35b61056a60048036038101906105659190612f46565b611abe565b005b610586600480360381019061058191906132b6565b611c88565b6040516105939190612ff1565b60405180910390f35b6105b660048036038101906105b19190612f46565b611dc0565b005b6105d260048036038101906105cd9190612fa9565b611f8b565b6040516105df91906131e1565b60405180910390f35b61060260048036038101906105fd91906132b6565b611ff7565b005b61061e60048036038101906106199190612f46565b6121c2565b005b610628612245565b6040516106359190613317565b60405180910390f35b61064661226b565b60064290806001815401808255809150506001900390600052602060002001600090919091909150556005819080600181540180825580915050600190039060005260206000200160009091909190916101000a81548173ffffffffffffffffffffffffffffffffffffffff021916908373ffffffffffffffffffffffffffffffffffffffff1602179055508073ffffffffffffffffffffffffffffffffffffffff167f7b3d6578175180dc481df4d00e708332d71786e9a44d81b29d2d48174f17c18960405160405180910390a250565b336000600160008373ffffffffffffffffffffffffffffffffffffffff1673ffffffffffffffffffffffffffffffffffffffff168152602001908152602001600020541161079b576040517f08c379a00000000000000000000000000000000000000000000000000000000081526004016107929061338f565b60405180910390fd5b6000600260018060003373ffffffffffffffffffffffffffffffffffffffff1673ffffffffffffffffffffffffffffffffffffffff168152602001908152602001600020546107ea91906133de565b815481106107fb576107fa613412565b5b90600052602060002090600502016004015490508281101561081b578092505b6000831115610a3c576000600460009054906101000a900473ffffffffffffffffffffffffffffffffffffffff1673ffffffffffffffffffffffffffffffffffffffff166323b872dd333073ffffffffffffffffffffffffffffffffffffffff16638da5cb5b6040518163ffffffff1660e01b8152600401602060405180830381865afa1580156108b0573d6000803e3d6000fd5b505050506040513d601f19601f820116820180604052508101906108d49190613456565b876040518463ffffffff1660e01b81526004016108f393929190613483565b6020604051808303816000875af1158015610912573d6000803e3d6000fd5b505050506040513d601f19601f8201168201806040525081019061093691906134e6565b905080610978576040517f08c379a000000000000000000000000000000000000000000000000000000000815260040161096f9061355f565b60405180910390fd5b838261098491906133de565b600260018060003373ffffffffffffffffffffffffffffffffffffffff1673ffffffffffffffffffffffffffffffffffffffff168152602001908152602001600020546109d191906133de565b815481106109e2576109e1613412565b5b9060005260206000209060050201600401819055503373ffffffffffffffffffffffffffffffffffffffff167f7cd5f45a99992acf8a3c4f46fbc2636e3cd3b0221f95b6ecc35b685887855cf760405160405180910390a2505b505050565b6000816000600160008373ffffffffffffffffffffffffffffffffffffffff1673ffffffffffffffffffffffffffffffffffffffff1681526020019081526020016000205411610ac6576040517f08c379a0000000000000000000000000000000000000000000000000000000008152600401610abd9061338f565b60405180910390fd5b60011515600760149054906101000a900460ff16151514610b1c576040517f08c379a0000000000000000000000000000000000000000000000000000000008152600401610b13906135f1565b60405180910390fd5b600260018060008673ffffffffffffffffffffffffffffffffffffffff1673ffffffffffffffffffffffffffffffffffffffff16815260200190815260200160002054610b6991906133de565b81548110610b7a57610b79613412565b5b906000526020600020906005020160030160009054906101000a900460ff16915050919050565b6060816000600160008373ffffffffffffffffffffffffffffffffffffffff1673ffffffffffffffffffffffffffffffffffffffff1681526020019081526020016000205411610c26576040517f08c379a0000000000000000000000000000000000000000000000000000000008152600401610c1d9061338f565b60405180910390fd5b600260018060008673ffffffffffffffffffffffffffffffffffffffff1673ffffffffffffffffffffffffffffffffffffffff16815260200190815260200160002054610c7391906133de565b81548110610c8457610c83613412565b5b9060005260206000209060050201600101805480602002602001604051908101604052809291908181526020018280548015610cdf57602002820191906000526020600020905b815481526020019060010190808311610ccb575b5050505050915050919050565b60016020528060005260406000206000915090505481565b6000806000905060005b600354811015610d4857610d2281856122e9565b15610d3757600182610d349190613611565b91505b80610d4190613645565b9050610d0e565b5080915050919050565b60028181548110610d6257600080fd5b90600052602060002090600502016000915090508060000160009054906101000a900460ff16908060020154908060030160009054906101000a900460ff16908060040154905084565b610db461226b565b806000600160008373ffffffffffffffffffffffffffffffffffffffff1673ffffffffffffffffffffffffffffffffffffffff1681526020019081526020016000205411610e37576040517f08c379a0000000000000000000000000000000000000000000000000000000008152600401610e2e9061338f565b60405180910390fd5b6000600260018060008673ffffffffffffffffffffffffffffffffffffffff1673ffffffffffffffffffffffffffffffffffffffff16815260200190815260200160002054610e8691906133de565b81548110610e9757610e96613412565b5b9060005260206000209060050201905060006001811115610ebb57610eba613116565b5b8160000160009054906101000a900460ff166001811115610edf57610ede613116565b5b14610f1f576040517f08c379a0000000000000000000000000000000000000000000000000000000008152600401610f16906136d9565b60405180910390fd5b60018160000160006101000a81548160ff02191690836001811115610f4757610f46613116565b5b02179055508273ffffffffffffffffffffffffffffffffffffffff167f798117ec059ab8d319461ef2502b1f9d8a47cd966bfd1f3e23b6f26c30bebb7760405160405180910390a2505050565b600760009054906101000a900473ffffffffffffffffffffffffffffffffffffffff1681565b60058181548110610fca57600080fd5b906000526020600020016000915054906101000a900473ffffffffffffffffffffffffffffffffffffffff1681565b61100161226b565b806000600160008373ffffffffffffffffffffffffffffffffffffffff1673ffffffffffffffffffffffffffffffffffffffff168152602001908152602001600020541180156110f0575060018081111561105f5761105e613116565b5b600260018060008573ffffffffffffffffffffffffffffffffffffffff1673ffffffffffffffffffffffffffffffffffffffff168152602001908152602001600020546110ac91906133de565b815481106110bd576110bc613412565b5b906000526020600020906005020160000160009054906101000a900460ff1660018111156110ee576110ed613116565b5b145b61112f576040517f08c379a000000000000000000000000000000000000000000000000000000000815260040161112690613745565b60405180910390fd5b6000600260018060008673ffffffffffffffffffffffffffffffffffffffff1673ffffffffffffffffffffffffffffffffffffffff1681526020019081526020016000205461117e91906133de565b8154811061118f5761118e613412565b5b906000526020600020906005020160000160006101000a81548160ff021916908360018111156111c2576111c1613116565b5b021790555060008273ffffffffffffffffffffffffffffffffffffffff167f1105cbf79ba9aec674e68bafc67545b3e180703742c1ad6af4ab85fd0d5c4cdd60405160405180910390a35050565b600760149054906101000a900460ff1681565b600061122e42610d04565b905090565b61123b61226b565b6000600160008373ffffffffffffffffffffffffffffffffffffffff1673ffffffffffffffffffffffffffffffffffffffff16815260200190815260200160002054146112bd576040517f08c379a00000000000000000000000000000000000000000000000000000000081526004016112b4906137b1565b60405180910390fd5b6002600181600181540180825580915050039060005260206000209050506001600360008282546112ee9190613611565b92505081905550600354600160008373ffffffffffffffffffffffffffffffffffffffff1673ffffffffffffffffffffffffffffffffffffffff1681526020019081526020016000208190555060006002600160035461134e91906133de565b8154811061135f5761135e613412565b5b9060005260206000209060050201905060018160000160006101000a81548160ff0219169083600181111561139757611396613116565b5b021790555060008160030160006101000a81548160ff0219169083151502179055505050565b6000806000905060005b6003548110156113fa576113dc81868661241d565b826113e79190613611565b9150806113f390613645565b90506113c7565b508091505092915050565b806000600160008373ffffffffffffffffffffffffffffffffffffffff1673ffffffffffffffffffffffffffffffffffffffff1681526020019081526020016000205411611488576040517f08c379a000000000000000000000000000000000000000000000000000000000815260040161147f9061338f565b60405180910390fd5b60011515600760149054906101000a900460ff161515146114de576040517f08c379a00000000000000000000000000000000000000000000000000000000081526004016114d5906135f1565b60405180910390fd5b6114e882426125f9565b5050565b600681815481106114fc57600080fd5b906000526020600020016000915090505481565b816000600160008373ffffffffffffffffffffffffffffffffffffffff1673ffffffffffffffffffffffffffffffffffffffff1681526020019081526020016000205411611593576040517f08c379a000000000000000000000000000000000000000000000000000000000815260040161158a9061338f565b60405180910390fd5b60001515600760149054906101000a900460ff161515146115e9576040517f08c379a00000000000000000000000000000000000000000000000000000000081526004016115e090613843565b60405180910390fd5b6115f383836125f9565b505050565b61160061226b565b61160a6000612923565b565b816000600160008373ffffffffffffffffffffffffffffffffffffffff1673ffffffffffffffffffffffffffffffffffffffff168152602001908152602001600020541161168f576040517f08c379a00000000000000000000000000000000000000000000000000000000081526004016116869061338f565b60405180910390fd5b60001515600760149054906101000a900460ff161515146116e5576040517f08c379a00000000000000000000000000000000000000000000000000000000081526004016116dc90613843565b60405180910390fd5b826000600260018060008573ffffffffffffffffffffffffffffffffffffffff1673ffffffffffffffffffffffffffffffffffffffff1681526020019081526020016000205461173591906133de565b8154811061174657611745613412565b5b9060005260206000209060050201905060006002826001018054905061176c9190613892565b14801561178857508060030160009054906101000a900460ff16155b6117c7576040517f08c379a00000000000000000000000000000000000000000000000000000000081526004016117be9061390f565b60405180910390fd5b6117d185856125f9565b5050505050565b60035481565b60008060009054906101000a900473ffffffffffffffffffffffffffffffffffffffff16905090565b6000336000600160008373ffffffffffffffffffffffffffffffffffffffff1673ffffffffffffffffffffffffffffffffffffffff168152602001908152602001600020541161188c576040517f08c379a00000000000000000000000000000000000000000000000000000000081526004016118839061338f565b60405180910390fd5b600260018060003373ffffffffffffffffffffffffffffffffffffffff1673ffffffffffffffffffffffffffffffffffffffff168152602001908152602001600020546118d991906133de565b815481106118ea576118e9613412565b5b90600052602060002090600502016004015491505090565b336000600160008373ffffffffffffffffffffffffffffffffffffffff1673ffffffffffffffffffffffffffffffffffffffff168152602001908152602001600020541180156119f157506001808111156119605761195f613116565b5b600260018060008573ffffffffffffffffffffffffffffffffffffffff1673ffffffffffffffffffffffffffffffffffffffff168152602001908152602001600020546119ad91906133de565b815481106119be576119bd613412565b5b906000526020600020906005020160000160009054906101000a900460ff1660018111156119ef576119ee613116565b5b145b611a30576040517f08c379a0000000000000000000000000000000000000000000000000000000008152600401611a2790613745565b60405180910390fd5b6000600260018060003373ffffffffffffffffffffffffffffffffffffffff1673ffffffffffffffffffffffffffffffffffffffff16815260200190815260200160002054611a7f91906133de565b81548110611a9057611a8f613412565b5b90600052602060002090600502019050828160020181905550505050565b6000611ab942611f8b565b905090565b806000600160008373ffffffffffffffffffffffffffffffffffffffff1673ffffffffffffffffffffffffffffffffffffffff1681526020019081526020016000205411611b41576040517f08c379a0000000000000000000000000000000000000000000000000000000008152600401611b389061338f565b60405180910390fd5b60011515600760149054906101000a900460ff16151514611b97576040517f08c379a0000000000000000000000000000000000000000000000000000000008152600401611b8e906135f1565b60405180910390fd5b816000600260018060008573ffffffffffffffffffffffffffffffffffffffff1673ffffffffffffffffffffffffffffffffffffffff16815260200190815260200160002054611be791906133de565b81548110611bf857611bf7613412565b5b90600052602060002090600502019050600160028260010180549050611c1e9190613892565b148015611c3957508060030160009054906101000a900460ff165b611c78576040517f08c379a0000000000000000000000000000000000000000000000000000000008152600401611c6f9061397b565b60405180910390fd5b611c8284426125f9565b50505050565b6000826000600160008373ffffffffffffffffffffffffffffffffffffffff1673ffffffffffffffffffffffffffffffffffffffff1681526020019081526020016000205411611d0d576040517f08c379a0000000000000000000000000000000000000000000000000000000008152600401611d049061338f565b60405180910390fd5b60001515600760149054906101000a900460ff16151514611d63576040517f08c379a0000000000000000000000000000000000000000000000000000000008152600401611d5a90613843565b60405180910390fd5b611db760018060008773ffffffffffffffffffffffffffffffffffffffff1673ffffffffffffffffffffffffffffffffffffffff16815260200190815260200160002054611db191906133de565b846122e9565b91505092915050565b806000600160008373ffffffffffffffffffffffffffffffffffffffff1673ffffffffffffffffffffffffffffffffffffffff1681526020019081526020016000205411611e43576040517f08c379a0000000000000000000000000000000000000000000000000000000008152600401611e3a9061338f565b60405180910390fd5b60011515600760149054906101000a900460ff16151514611e99576040517f08c379a0000000000000000000000000000000000000000000000000000000008152600401611e90906135f1565b60405180910390fd5b816000600260018060008573ffffffffffffffffffffffffffffffffffffffff1673ffffffffffffffffffffffffffffffffffffffff16815260200190815260200160002054611ee991906133de565b81548110611efa57611ef9613412565b5b90600052602060002090600502019050600060028260010180549050611f209190613892565b148015611f3c57508060030160009054906101000a900460ff16155b611f7b576040517f08c379a0000000000000000000000000000000000000000000000000000000008152600401611f729061390f565b60405180910390fd5b611f8584426125f9565b50505050565b600080611f97836129e7565b90506000808212611fe85760058281548110611fb657611fb5613412565b5b9060005260206000200160009054906101000a900473ffffffffffffffffffffffffffffffffffffffff169050611fed565b600090505b8092505050919050565b816000600160008373ffffffffffffffffffffffffffffffffffffffff1673ffffffffffffffffffffffffffffffffffffffff168152602001908152602001600020541161207a576040517f08c379a00000000000000000000000000000000000000000000000000000000081526004016120719061338f565b60405180910390fd5b60001515600760149054906101000a900460ff161515146120d0576040517f08c379a00000000000000000000000000000000000000000000000000000000081526004016120c790613843565b60405180910390fd5b826000600260018060008573ffffffffffffffffffffffffffffffffffffffff1673ffffffffffffffffffffffffffffffffffffffff1681526020019081526020016000205461212091906133de565b8154811061213157612130613412565b5b906000526020600020906005020190506001600282600101805490506121579190613892565b14801561217257508060030160009054906101000a900460ff165b6121b1576040517f08c379a00000000000000000000000000000000000000000000000000000000081526004016121a89061397b565b60405180910390fd5b6121bb85856125f9565b5050505050565b6121ca61226b565b600073ffffffffffffffffffffffffffffffffffffffff168173ffffffffffffffffffffffffffffffffffffffff1603612239576040517f08c379a000000000000000000000000000000000000000000000000000000000815260040161223090613a0d565b60405180910390fd5b61224281612923565b50565b600460009054906101000a900473ffffffffffffffffffffffffffffffffffffffff1681565b612273612a85565b73ffffffffffffffffffffffffffffffffffffffff166122916117de565b73ffffffffffffffffffffffffffffffffffffffff16146122e7576040517f08c379a00000000000000000000000000000000000000000000000000000000081526004016122de90613a79565b60405180910390fd5b565b60008083101580156122fc575060035483105b61233b576040517f08c379a000000000000000000000000000000000000000000000000000000000815260040161233290613ae5565b60405180910390fd5b6000806002858154811061235257612351613412565b5b9060005260206000209060050201905060008160010180549050905060005b818110156124105782600101818154811061238f5761238e613412565b5b906000526020600020015486106123fc576001935082600101805490506001826123b99190613611565b1080156123f15750826001016001826123d29190613611565b815481106123e3576123e2613412565b5b906000526020600020015486115b156123fb57600093505b5b6002816124099190613611565b9050612371565b5082935050505092915050565b6000808410158015612430575060035484105b61246f576040517f08c379a000000000000000000000000000000000000000000000000000000000815260040161246690613ae5565b60405180910390fd5b8183106124b1576040517f08c379a00000000000000000000000000000000000000000000000000000000081526004016124a890613b51565b60405180910390fd5b600083836124bf91906133de565b9050600080600287815481106124d8576124d7613412565b5b9060005260206000209060050201905060008160010180549050905060008060005b838110156125c65784600101818154811061251857612517613412565b5b90600052602060002001549250828a1115612531578992505b84600101805490506001826125469190613611565b1015612580578460010160018261255d9190613611565b8154811061256e5761256d613412565b5b90600052602060002001549150612584565b4291505b81891015612590578891505b828211156125b25782826125a491906133de565b866125af9190613611565b95505b6002816125bf9190613611565b90506124fa565b50856002876125d59190613b71565b866125e09190613611565b6125ea9190613b71565b96505050505050509392505050565b600760009054906101000a900473ffffffffffffffffffffffffffffffffffffffff1673ffffffffffffffffffffffffffffffffffffffff163373ffffffffffffffffffffffffffffffffffffffff1614612689576040517f08c379a000000000000000000000000000000000000000000000000000000000815260040161268090613bee565b60405180910390fd5b816000600160008373ffffffffffffffffffffffffffffffffffffffff1673ffffffffffffffffffffffffffffffffffffffff1681526020019081526020016000205411801561277857506001808111156126e7576126e6613116565b5b600260018060008573ffffffffffffffffffffffffffffffffffffffff1673ffffffffffffffffffffffffffffffffffffffff1681526020019081526020016000205461273491906133de565b8154811061274557612744613412565b5b906000526020600020906005020160000160009054906101000a900460ff16600181111561277657612775613116565b5b145b6127b7576040517f08c379a00000000000000000000000000000000000000000000000000000000081526004016127ae90613745565b60405180910390fd5b6000600260018060008773ffffffffffffffffffffffffffffffffffffffff1673ffffffffffffffffffffffffffffffffffffffff1681526020019081526020016000205461280691906133de565b8154811061281757612816613412565b5b906000526020600020906005020190508060030160009054906101000a900460ff16158160030160006101000a81548160ff021916908315150217905550806001018390806001815401808255809150506001900390600052602060002001600090919091909150558060030160009054906101000a900460ff1661291d576000816001018054905090506000826001016002836128b591906133de565b815481106128c6576128c5613412565b5b906000526020600020015490506000836001016001846128e691906133de565b815481106128f7576128f6613412565b5b9060005260206000200154905061291987838361291486866113bd565b612a8d565b5050505b50505050565b60008060009054906101000a900473ffffffffffffffffffffffffffffffffffffffff169050816000806101000a81548173ffffffffffffffffffffffffffffffffffffffff021916908373ffffffffffffffffffffffffffffffffffffffff1602179055508173ffffffffffffffffffffffffffffffffffffffff168173ffffffffffffffffffffffffffffffffffffffff167f8be0079c531659141344cd1fd0a4f28419497f9722a3daafe3b4186f6b6457e060405160405180910390a35050565b600080600580549050905060007fffffffffffffffffffffffffffffffffffffffffffffffffffffffffffffffff905060005b82811015612a7a5784600682600186612a3391906133de565b612a3d91906133de565b81548110612a4e57612a4d613412565b5b90600052602060002001541015612a6757809150612a7a565b8080612a7290613645565b915050612a1a565b508092505050919050565b600033905090565b6000612a98846129e7565b90506000808212612b665760058281548110612ab757612ab6613412565b5b9060005260206000200160009054906101000a900473ffffffffffffffffffffffffffffffffffffffff1673ffffffffffffffffffffffffffffffffffffffff1663743096c18686868a6040518563ffffffff1660e01b8152600401612b209493929190613c0e565b6020604051808303816000875af1158015612b3f573d6000803e3d6000fd5b505050506040513d601f19601f82011682018060405250810190612b639190613c68565b90505b6000811115612edb576000600260018060008a73ffffffffffffffffffffffffffffffffffffffff1673ffffffffffffffffffffffffffffffffffffffff16815260200190815260200160002054612bbe91906133de565b81548110612bcf57612bce613412565b5b9060005260206000209060050201905081816004016000828254612bf39190613611565b9250508190555060008160000160006101000a81548160ff02191690836001811115612c2257612c21613116565b5b02179055506000600460009054906101000a900473ffffffffffffffffffffffffffffffffffffffff1673ffffffffffffffffffffffffffffffffffffffff1663dd62ed3e89306040518363ffffffff1660e01b8152600401612c86929190613c95565b602060405180830381865afa158015612ca3573d6000803e3d6000fd5b505050506040513d601f19601f82011682018060405250810190612cc79190613c68565b905082811015612d24578083612cdd91906133de565b8873ffffffffffffffffffffffffffffffffffffffff167f1105cbf79ba9aec674e68bafc67545b3e180703742c1ad6af4ab85fd0d5c4cdd60405160405180910390a38092505b6000831115612ed8576000600460009054906101000a900473ffffffffffffffffffffffffffffffffffffffff1673ffffffffffffffffffffffffffffffffffffffff166323b872dd8a3073ffffffffffffffffffffffffffffffffffffffff16638da5cb5b6040518163ffffffff1660e01b8152600401602060405180830381865afa158015612db9573d6000803e3d6000fd5b505050506040513d601f19601f82011682018060405250810190612ddd9190613456565b876040518463ffffffff1660e01b8152600401612dfc93929190613483565b6020604051808303816000875af1158015612e1b573d6000803e3d6000fd5b505050506040513d601f19601f82011682018060405250810190612e3f91906134e6565b905080612e81576040517f08c379a0000000000000000000000000000000000000000000000000000000008152600401612e7890613d0a565b60405180910390fd5b83836004016000828254612e9591906133de565b925050819055506000836004015403612ed65760018360000160006101000a81548160ff02191690836001811115612ed057612ecf613116565b5b02179055505b505b50505b505050505050565b600080fd5b600073ffffffffffffffffffffffffffffffffffffffff82169050919050565b6000612f1382612ee8565b9050919050565b612f2381612f08565b8114612f2e57600080fd5b50565b600081359050612f4081612f1a565b92915050565b600060208284031215612f5c57612f5b612ee3565b5b6000612f6a84828501612f31565b91505092915050565b6000819050919050565b612f8681612f73565b8114612f9157600080fd5b50565b600081359050612fa381612f7d565b92915050565b600060208284031215612fbf57612fbe612ee3565b5b6000612fcd84828501612f94565b91505092915050565b60008115159050919050565b612feb81612fd6565b82525050565b60006020820190506130066000830184612fe2565b92915050565b600081519050919050565b600082825260208201905092915050565b6000819050602082019050919050565b61304181612f73565b82525050565b60006130538383613038565b60208301905092915050565b6000602082019050919050565b60006130778261300c565b6130818185613017565b935061308c83613028565b8060005b838110156130bd5781516130a48882613047565b97506130af8361305f565b925050600181019050613090565b5085935050505092915050565b600060208201905081810360008301526130e4818461306c565b905092915050565b6130f581612f73565b82525050565b600060208201905061311060008301846130ec565b92915050565b7f4e487b7100000000000000000000000000000000000000000000000000000000600052602160045260246000fd5b6002811061315657613155613116565b5b50565b600081905061316782613145565b919050565b600061317782613159565b9050919050565b6131878161316c565b82525050565b60006080820190506131a2600083018761317e565b6131af60208301866130ec565b6131bc6040830185612fe2565b6131c960608301846130ec565b95945050505050565b6131db81612f08565b82525050565b60006020820190506131f660008301846131d2565b92915050565b6000819050919050565b600061322161321c61321784612ee8565b6131fc565b612ee8565b9050919050565b600061323382613206565b9050919050565b600061324582613228565b9050919050565b6132558161323a565b82525050565b6000602082019050613270600083018461324c565b92915050565b6000806040838503121561328d5761328c612ee3565b5b600061329b85828601612f94565b92505060206132ac85828601612f94565b9150509250929050565b600080604083850312156132cd576132cc612ee3565b5b60006132db85828601612f31565b92505060206132ec85828601612f94565b9150509250929050565b600061330182613228565b9050919050565b613311816132f6565b82525050565b600060208201905061332c6000830184613308565b92915050565b600082825260208201905092915050565b7f546869732075736572206973206e6f7420726567697374657265640000000000600082015250565b6000613379601b83613332565b915061338482613343565b602082019050919050565b600060208201905081810360008301526133a88161336c565b9050919050565b7f4e487b7100000000000000000000000000000000000000000000000000000000600052601160045260246000fd5b60006133e982612f73565b91506133f483612f73565b925082820390508181111561340c5761340b6133af565b5b92915050565b7f4e487b7100000000000000000000000000000000000000000000000000000000600052603260045260246000fd5b60008151905061345081612f1a565b92915050565b60006020828403121561346c5761346b612ee3565b5b600061347a84828501613441565b91505092915050565b600060608201905061349860008301866131d2565b6134a560208301856131d2565b6134b260408301846130ec565b949350505050565b6134c381612fd6565b81146134ce57600080fd5b50565b6000815190506134e0816134ba565b92915050565b6000602082840312156134fc576134fb612ee3565b5b600061350a848285016134d1565b91505092915050565b7f4661696c656420746f2070617920646562740000000000000000000000000000600082015250565b6000613549601283613332565b915061355482613513565b602082019050919050565b600060208201905081810360008301526135788161353c565b9050919050565b7f546865206f6e636861696e54696d652076616c75652073686f756c642062652060008201527f7472756500000000000000000000000000000000000000000000000000000000602082015250565b60006135db602483613332565b91506135e68261357f565b604082019050919050565b6000602082019050818103600083015261360a816135ce565b9050919050565b600061361c82612f73565b915061362783612f73565b925082820190508082111561363f5761363e6133af565b5b92915050565b600061365082612f73565b91507fffffffffffffffffffffffffffffffffffffffffffffffffffffffffffffffff8203613682576136816133af565b5b600182019050919050565b7f5468652075736572206973206e6f7420626c6f636b6564000000000000000000600082015250565b60006136c3601783613332565b91506136ce8261368d565b602082019050919050565b600060208201905081810360008301526136f2816136b6565b9050919050565b7f546869732075736572206973206e6f7420616374697661746564000000000000600082015250565b600061372f601a83613332565b915061373a826136f9565b602082019050919050565b6000602082019050818103600083015261375e81613722565b9050919050565b7f5573657220616c72656164792061646465640000000000000000000000000000600082015250565b600061379b601283613332565b91506137a682613765565b602082019050919050565b600060208201905081810360008301526137ca8161378e565b9050919050565b7f546865206f6e636861696e54696d652076616c75652073686f756c642062652060008201527f66616c7365000000000000000000000000000000000000000000000000000000602082015250565b600061382d602583613332565b9150613838826137d1565b604082019050919050565b6000602082019050818103600083015261385c81613820565b9050919050565b7f4e487b7100000000000000000000000000000000000000000000000000000000600052601260045260246000fd5b600061389d82612f73565b91506138a883612f73565b9250826138b8576138b7613863565b5b828206905092915050565b7f5468652075736572206973206e6f74206f757473696465000000000000000000600082015250565b60006138f9601783613332565b9150613904826138c3565b602082019050919050565b60006020820190508181036000830152613928816138ec565b9050919050565b7f5468652075736572206973206e6f7420696e7369646500000000000000000000600082015250565b6000613965601683613332565b91506139708261392f565b602082019050919050565b6000602082019050818103600083015261399481613958565b9050919050565b7f4f776e61626c653a206e6577206f776e657220697320746865207a65726f206160008201527f6464726573730000000000000000000000000000000000000000000000000000602082015250565b60006139f7602683613332565b9150613a028261399b565b604082019050919050565b60006020820190508181036000830152613a26816139ea565b9050919050565b7f4f776e61626c653a2063616c6c6572206973206e6f7420746865206f776e6572600082015250565b6000613a63602083613332565b9150613a6e82613a2d565b602082019050919050565b60006020820190508181036000830152613a9281613a56565b9050919050565b7f4f7574206f662072616e67652061636365737320746f20757365720000000000600082015250565b6000613acf601b83613332565b9150613ada82613a99565b602082019050919050565b60006020820190508181036000830152613afe81613ac2565b9050919050565b7f54686973206973206e6f7420616e20696e74657276616c000000000000000000600082015250565b6000613b3b601783613332565b9150613b4682613b05565b602082019050919050565b60006020820190508181036000830152613b6a81613b2e565b9050919050565b6000613b7c82612f73565b9150613b8783612f73565b925082613b9757613b96613863565b5b828204905092915050565b7f596f75277265206e6f7420746865206861726477617265000000000000000000600082015250565b6000613bd8601783613332565b9150613be382613ba2565b602082019050919050565b60006020820190508181036000830152613c0781613bcb565b9050919050565b6000608082019050613c2360008301876130ec565b613c3060208301866130ec565b613c3d60408301856130ec565b613c4a60608301846131d2565b95945050505050565b600081519050613c6281612f7d565b92915050565b600060208284031215613c7e57613c7d612ee3565b5b6000613c8c84828501613c53565b91505092915050565b6000604082019050613caa60008301856131d2565b613cb760208301846131d2565b9392505050565b7f4661696c656420746f20706179206f6e20657869740000000000000000000000600082015250565b6000613cf4601583613332565b9150613cff82613cbe565b602082019050919050565b60006020820190508181036000830152613d2381613ce7565b905091905056fea2646970667358221220747bd4fa736eb509ae10a3a69d2a0c7e02932a2c5b4b708f64e817367ef5013364736f6c63430008110033",
  "linkReferences": {},
  "deployedLinkReferences": {}
}